{
  "_format": "hh-sol-artifact-1",
  "contractName": "BuyFamon",
  "sourceName": "contracts/BuyFamon.sol",
  "abi": [
    {
      "inputs": [
        {
          "internalType": "uint256",
          "name": "_limit",
          "type": "uint256"
        },
        {
          "internalType": "uint256",
          "name": "_price",
          "type": "uint256"
        }
      ],
      "stateMutability": "nonpayable",
      "type": "constructor"
    },
    {
      "anonymous": false,
      "inputs": [
        {
          "indexed": false,
          "internalType": "uint256",
          "name": "tokenId",
          "type": "uint256"
        }
      ],
      "name": "BuyFamonEvent",
      "type": "event"
    },
    {
      "anonymous": false,
      "inputs": [
        {
          "indexed": true,
          "internalType": "address",
          "name": "previousOwner",
          "type": "address"
        },
        {
          "indexed": true,
          "internalType": "address",
          "name": "newOwner",
          "type": "address"
        }
      ],
      "name": "OwnershipTransferred",
      "type": "event"
    },
    {
      "anonymous": false,
      "inputs": [
        {
          "indexed": false,
          "internalType": "address",
          "name": "account",
          "type": "address"
        }
      ],
      "name": "Paused",
      "type": "event"
    },
    {
      "anonymous": false,
      "inputs": [
        {
          "indexed": false,
          "internalType": "address",
          "name": "account",
          "type": "address"
        }
      ],
      "name": "Unpaused",
      "type": "event"
    },
    {
      "inputs": [
        {
          "internalType": "uint8",
          "name": "_quantity",
          "type": "uint8"
        }
      ],
      "name": "buyFamon",
      "outputs": [
        {
          "internalType": "uint256",
          "name": "",
          "type": "uint256"
        }
      ],
      "stateMutability": "payable",
      "type": "function"
    },
    {
      "inputs": [],
      "name": "getBalance",
      "outputs": [
        {
          "internalType": "uint256",
          "name": "",
          "type": "uint256"
        }
      ],
      "stateMutability": "view",
      "type": "function"
    },
    {
      "inputs": [],
      "name": "getCounterAndLimit",
      "outputs": [
        {
          "internalType": "uint256",
          "name": "",
          "type": "uint256"
        },
        {
          "internalType": "uint256",
          "name": "",
          "type": "uint256"
        }
      ],
      "stateMutability": "view",
      "type": "function"
    },
    {
      "inputs": [],
      "name": "max",
      "outputs": [
        {
          "internalType": "uint8",
          "name": "",
          "type": "uint8"
        }
      ],
      "stateMutability": "view",
      "type": "function"
    },
    {
      "inputs": [],
      "name": "min",
      "outputs": [
        {
          "internalType": "uint8",
          "name": "",
          "type": "uint8"
        }
      ],
      "stateMutability": "view",
      "type": "function"
    },
    {
      "inputs": [],
      "name": "owner",
      "outputs": [
        {
          "internalType": "address",
          "name": "",
          "type": "address"
        }
      ],
      "stateMutability": "view",
      "type": "function"
    },
    {
      "inputs": [],
      "name": "pause",
      "outputs": [],
      "stateMutability": "nonpayable",
      "type": "function"
    },
    {
      "inputs": [],
      "name": "paused",
      "outputs": [
        {
          "internalType": "bool",
          "name": "",
          "type": "bool"
        }
      ],
      "stateMutability": "view",
      "type": "function"
    },
    {
      "inputs": [],
      "name": "price",
      "outputs": [
        {
          "internalType": "uint256",
          "name": "",
          "type": "uint256"
        }
      ],
      "stateMutability": "view",
      "type": "function"
    },
    {
      "inputs": [],
      "name": "renounceOwnership",
      "outputs": [],
      "stateMutability": "nonpayable",
      "type": "function"
    },
    {
      "inputs": [
        {
          "internalType": "uint256",
          "name": "_price",
          "type": "uint256"
        }
      ],
      "name": "setPrice",
      "outputs": [],
      "stateMutability": "nonpayable",
      "type": "function"
    },
    {
      "inputs": [
        {
          "internalType": "uint256",
          "name": "_limit",
          "type": "uint256"
        }
      ],
      "name": "setRaiseLimit",
      "outputs": [],
      "stateMutability": "nonpayable",
      "type": "function"
    },
    {
      "inputs": [
        {
          "internalType": "uint256",
          "name": "_limit",
          "type": "uint256"
        },
        {
          "internalType": "uint256",
          "name": "_price",
          "type": "uint256"
        }
      ],
      "name": "setRaiseLimitAndPrice",
      "outputs": [],
      "stateMutability": "nonpayable",
      "type": "function"
    },
    {
      "inputs": [
        {
          "internalType": "address",
          "name": "newOwner",
          "type": "address"
        }
      ],
      "name": "transferOwnership",
      "outputs": [],
      "stateMutability": "nonpayable",
      "type": "function"
    },
    {
      "inputs": [],
      "name": "unpause",
      "outputs": [],
      "stateMutability": "nonpayable",
      "type": "function"
    },
    {
      "inputs": [],
      "name": "withdraw",
      "outputs": [],
      "stateMutability": "nonpayable",
      "type": "function"
    }
  ],
  "bytecode": "0x60806040523480156200001157600080fd5b506040516200176d3803806200176d8339818101604052810190620000379190620001a3565b60008060006101000a81548160ff0219169083151502179055506200007162000065620000bf60201b60201c565b620000c760201b60201c565b81600281905550806003819055506001600460006101000a81548160ff021916908360ff160217905550600a600460016101000a81548160ff021916908360ff160217905550505062000208565b600033905090565b60008060019054906101000a900473ffffffffffffffffffffffffffffffffffffffff16905081600060016101000a81548173ffffffffffffffffffffffffffffffffffffffff021916908373ffffffffffffffffffffffffffffffffffffffff1602179055508173ffffffffffffffffffffffffffffffffffffffff168173ffffffffffffffffffffffffffffffffffffffff167f8be0079c531659141344cd1fd0a4f28419497f9722a3daafe3b4186f6b6457e060405160405180910390a35050565b6000815190506200019d81620001ee565b92915050565b60008060408385031215620001b757600080fd5b6000620001c7858286016200018c565b9250506020620001da858286016200018c565b9150509250929050565b6000819050919050565b620001f981620001e4565b81146200020557600080fd5b50565b61155580620002186000396000f3fe6080604052600436106100f35760003560e01c8063715018a61161008a578063a035b1fe11610059578063a035b1fe146102a7578063bf403f8f146102d2578063f2fde38b14610302578063f88979451461032b576100f3565b8063715018a6146102255780638456cb591461023c5780638da5cb5b1461025357806391b7f5ed1461027e576100f3565b80633f4ba83a116100c65780633f4ba83a1461018f5780635c975abb146101a65780636ac5db19146101d15780636ca40b40146101fc576100f3565b80630235357e146100f857806312065fe0146101245780632e860fc21461014f5780633ccfd60b14610178575b600080fd5b34801561010457600080fd5b5061010d610356565b60405161011b929190611190565b60405180910390f35b34801561013057600080fd5b5061013961036e565b6040516101469190611175565b60405180910390f35b34801561015b57600080fd5b5061017660048036038101906101719190610e1a565b610376565b005b34801561018457600080fd5b5061018d610440565b005b34801561019b57600080fd5b506101a4610505565b005b3480156101b257600080fd5b506101bb61058b565b6040516101c8919061103a565b60405180910390f35b3480156101dd57600080fd5b506101e66105a1565b6040516101f391906111b9565b60405180910390f35b34801561020857600080fd5b50610223600480360381019061021e9190610e43565b6105b4565b005b34801561023157600080fd5b5061023a610686565b005b34801561024857600080fd5b5061025161070e565b005b34801561025f57600080fd5b50610268610794565b604051610275919061101f565b60405180910390f35b34801561028a57600080fd5b506102a560048036038101906102a09190610e1a565b6107bd565b005b3480156102b357600080fd5b506102bc610843565b6040516102c99190611175565b60405180910390f35b6102ec60048036038101906102e79190610e7f565b610849565b6040516102f99190611175565b60405180910390f35b34801561030e57600080fd5b5061032960048036038101906103249190610df1565b610a47565b005b34801561033757600080fd5b50610340610b3f565b60405161034d91906111b9565b60405180910390f35b6000806103636001610b52565b600254915091509091565b600047905090565b61037e610b60565b73ffffffffffffffffffffffffffffffffffffffff1661039c610794565b73ffffffffffffffffffffffffffffffffffffffff16146103f2576040517f08c379a00000000000000000000000000000000000000000000000000000000081526004016103e9906110f5565b60405180910390fd5b6002548111610436576040517f08c379a000000000000000000000000000000000000000000000000000000000815260040161042d906110d5565b60405180910390fd5b8060028190555050565b610448610b60565b73ffffffffffffffffffffffffffffffffffffffff16610466610794565b73ffffffffffffffffffffffffffffffffffffffff16146104bc576040517f08c379a00000000000000000000000000000000000000000000000000000000081526004016104b3906110f5565b60405180910390fd5b3373ffffffffffffffffffffffffffffffffffffffff166108fc479081150290604051600060405180830381858888f19350505050158015610502573d6000803e3d6000fd5b50565b61050d610b60565b73ffffffffffffffffffffffffffffffffffffffff1661052b610794565b73ffffffffffffffffffffffffffffffffffffffff1614610581576040517f08c379a0000000000000000000000000000000000000000000000000000000008152600401610578906110f5565b60405180910390fd5b610589610b68565b565b60008060009054906101000a900460ff16905090565b600460019054906101000a900460ff1681565b6105bc610b60565b73ffffffffffffffffffffffffffffffffffffffff166105da610794565b73ffffffffffffffffffffffffffffffffffffffff1614610630576040517f08c379a0000000000000000000000000000000000000000000000000000000008152600401610627906110f5565b60405180910390fd5b6002548211610674576040517f08c379a000000000000000000000000000000000000000000000000000000000815260040161066b906110d5565b60405180910390fd5b81600281905550806003819055505050565b61068e610b60565b73ffffffffffffffffffffffffffffffffffffffff166106ac610794565b73ffffffffffffffffffffffffffffffffffffffff1614610702576040517f08c379a00000000000000000000000000000000000000000000000000000000081526004016106f9906110f5565b60405180910390fd5b61070c6000610c09565b565b610716610b60565b73ffffffffffffffffffffffffffffffffffffffff16610734610794565b73ffffffffffffffffffffffffffffffffffffffff161461078a576040517f08c379a0000000000000000000000000000000000000000000000000000000008152600401610781906110f5565b60405180910390fd5b610792610cce565b565b60008060019054906101000a900473ffffffffffffffffffffffffffffffffffffffff16905090565b6107c5610b60565b73ffffffffffffffffffffffffffffffffffffffff166107e3610794565b73ffffffffffffffffffffffffffffffffffffffff1614610839576040517f08c379a0000000000000000000000000000000000000000000000000000000008152600401610830906110f5565b60405180910390fd5b8060038190555050565b60035481565b6000600460019054906101000a900460ff1660ff168260ff1611156108a3576040517f08c379a000000000000000000000000000000000000000000000000000000000815260040161089a90611135565b60405180910390fd5b600460009054906101000a900460ff1660ff168260ff1610156108fb576040517f08c379a00000000000000000000000000000000000000000000000000000000081526004016108f290611075565b60405180910390fd5b60025461091d8360ff1661090f6001610b52565b610d7090919063ffffffff16565b111561095e576040517f08c379a000000000000000000000000000000000000000000000000000000000815260040161095590611155565b60405180910390fd5b6109768260ff16600354610d8690919063ffffffff16565b34146109b7576040517f08c379a00000000000000000000000000000000000000000000000000000000081526004016109ae90611115565b60405180910390fd5b60006109d660016109c86001610b52565b610d7090919063ffffffff16565b905060005b8360ff168160ff161015610a06576109f36001610d9c565b80806109fe906112ea565b9150506109db565b507f8b649d82515d7c61ca19a6b249e3371f3591ed7c87dc32602e0c07844fe076d681604051610a369190611175565b60405180910390a180915050919050565b610a4f610b60565b73ffffffffffffffffffffffffffffffffffffffff16610a6d610794565b73ffffffffffffffffffffffffffffffffffffffff1614610ac3576040517f08c379a0000000000000000000000000000000000000000000000000000000008152600401610aba906110f5565b60405180910390fd5b600073ffffffffffffffffffffffffffffffffffffffff168173ffffffffffffffffffffffffffffffffffffffff161415610b33576040517f08c379a0000000000000000000000000000000000000000000000000000000008152600401610b2a90611095565b60405180910390fd5b610b3c81610c09565b50565b600460009054906101000a900460ff1681565b600081600001549050919050565b600033905090565b610b7061058b565b610baf576040517f08c379a0000000000000000000000000000000000000000000000000000000008152600401610ba690611055565b60405180910390fd5b60008060006101000a81548160ff0219169083151502179055507f5db9ee0a495bf2e6ff9c91a7834c1ba4fdd244a5e8aa4e537bd38aeae4b073aa610bf2610b60565b604051610bff919061101f565b60405180910390a1565b60008060019054906101000a900473ffffffffffffffffffffffffffffffffffffffff16905081600060016101000a81548173ffffffffffffffffffffffffffffffffffffffff021916908373ffffffffffffffffffffffffffffffffffffffff1602179055508173ffffffffffffffffffffffffffffffffffffffff168173ffffffffffffffffffffffffffffffffffffffff167f8be0079c531659141344cd1fd0a4f28419497f9722a3daafe3b4186f6b6457e060405160405180910390a35050565b610cd661058b565b15610d16576040517f08c379a0000000000000000000000000000000000000000000000000000000008152600401610d0d906110b5565b60405180910390fd5b60016000806101000a81548160ff0219169083151502179055507f62e78cea01bee320cd4e420270b5ea74000d11b0c9f74754ebdbfc544b05a258610d59610b60565b604051610d66919061101f565b60405180910390a1565b60008183610d7e91906111e5565b905092915050565b60008183610d94919061123b565b905092915050565b6001816000016000828254019250508190555050565b600081359050610dc1816114da565b92915050565b600081359050610dd6816114f1565b92915050565b600081359050610deb81611508565b92915050565b600060208284031215610e0357600080fd5b6000610e1184828501610db2565b91505092915050565b600060208284031215610e2c57600080fd5b6000610e3a84828501610dc7565b91505092915050565b60008060408385031215610e5657600080fd5b6000610e6485828601610dc7565b9250506020610e7585828601610dc7565b9150509250929050565b600060208284031215610e9157600080fd5b6000610e9f84828501610ddc565b91505092915050565b610eb181611295565b82525050565b610ec0816112a7565b82525050565b6000610ed36014836111d4565b9150610ede82611343565b602082019050919050565b6000610ef66010836111d4565b9150610f018261136c565b602082019050919050565b6000610f196026836111d4565b9150610f2482611395565b604082019050919050565b6000610f3c6010836111d4565b9150610f47826113e4565b602082019050919050565b6000610f5f6019836111d4565b9150610f6a8261140d565b602082019050919050565b6000610f826020836111d4565b9150610f8d82611436565b602082019050919050565b6000610fa5601c836111d4565b9150610fb08261145f565b602082019050919050565b6000610fc86011836111d4565b9150610fd382611488565b602082019050919050565b6000610feb6012836111d4565b9150610ff6826114b1565b602082019050919050565b61100a816112d3565b82525050565b611019816112dd565b82525050565b60006020820190506110346000830184610ea8565b92915050565b600060208201905061104f6000830184610eb7565b92915050565b6000602082019050818103600083015261106e81610ec6565b9050919050565b6000602082019050818103600083015261108e81610ee9565b9050919050565b600060208201905081810360008301526110ae81610f0c565b9050919050565b600060208201905081810360008301526110ce81610f2f565b9050919050565b600060208201905081810360008301526110ee81610f52565b9050919050565b6000602082019050818103600083015261110e81610f75565b9050919050565b6000602082019050818103600083015261112e81610f98565b9050919050565b6000602082019050818103600083015261114e81610fbb565b9050919050565b6000602082019050818103600083015261116e81610fde565b9050919050565b600060208201905061118a6000830184611001565b92915050565b60006040820190506111a56000830185611001565b6111b26020830184611001565b9392505050565b60006020820190506111ce6000830184611010565b92915050565b600082825260208201905092915050565b60006111f0826112d3565b91506111fb836112d3565b9250827fffffffffffffffffffffffffffffffffffffffffffffffffffffffffffffffff038211156112305761122f611314565b5b828201905092915050565b6000611246826112d3565b9150611251836112d3565b9250817fffffffffffffffffffffffffffffffffffffffffffffffffffffffffffffffff048311821515161561128a57611289611314565b5b828202905092915050565b60006112a0826112b3565b9050919050565b60008115159050919050565b600073ffffffffffffffffffffffffffffffffffffffff82169050919050565b6000819050919050565b600060ff82169050919050565b60006112f5826112dd565b915060ff82141561130957611308611314565b5b600182019050919050565b7f4e487b7100000000000000000000000000000000000000000000000000000000600052601160045260246000fd5b7f5061757361626c653a206e6f7420706175736564000000000000000000000000600082015250565b7f427579206d696e696d756d206973203100000000000000000000000000000000600082015250565b7f4f776e61626c653a206e6577206f776e657220697320746865207a65726f206160008201527f6464726573730000000000000000000000000000000000000000000000000000602082015250565b7f5061757361626c653a2070617573656400000000000000000000000000000000600082015250565b7f4c696d6974206e6565647320746f206265206772656174657200000000000000600082015250565b7f4f776e61626c653a2063616c6c6572206973206e6f7420746865206f776e6572600082015250565b7f506c656173652c2073656e64207468652072696768742076616c756500000000600082015250565b7f427579206d6178696d756d206973203130000000000000000000000000000000600082015250565b7f4c696d6974207761732072656163686564210000000000000000000000000000600082015250565b6114e381611295565b81146114ee57600080fd5b50565b6114fa816112d3565b811461150557600080fd5b50565b611511816112dd565b811461151c57600080fd5b5056fea2646970667358221220b69c038b8b3bc845b4301f94570cbcb3ae382faecbe38359f7d30f064568720764736f6c63430008040033",
  "linkReferences": {},
  "deployedLinkReferences": {}
}